{
  "_format": "hh-sol-artifact-1",
  "contractName": "CarbonCreditPlatform",
  "sourceName": "contracts/CarbonCredits.sol",
  "abi": [
    {
      "inputs": [
        {
          "internalType": "uint256",
          "name": "initBalance",
          "type": "uint256"
        }
      ],
      "stateMutability": "payable",
      "type": "constructor"
    },
    {
      "inputs": [
        {
          "internalType": "uint256",
          "name": "balance",
          "type": "uint256"
        },
        {
          "internalType": "uint256",
          "name": "withdrawAmount",
          "type": "uint256"
        }
      ],
      "name": "InsufficientBalance",
      "type": "error"
    },
    {
      "anonymous": false,
      "inputs": [
        {
          "indexed": true,
          "internalType": "address",
          "name": "user",
          "type": "address"
        },
        {
          "indexed": false,
          "internalType": "uint256",
          "name": "amount",
          "type": "uint256"
        }
      ],
      "name": "CarbonCreditsBurned",
      "type": "event"
    },
    {
      "anonymous": false,
      "inputs": [
        {
          "indexed": true,
          "internalType": "address",
          "name": "user",
          "type": "address"
        },
        {
          "indexed": false,
          "internalType": "uint256",
          "name": "amount",
          "type": "uint256"
        }
      ],
      "name": "CarbonCreditsMinted",
      "type": "event"
    },
    {
      "anonymous": false,
      "inputs": [
        {
          "indexed": true,
          "internalType": "address",
          "name": "from",
          "type": "address"
        },
        {
          "indexed": true,
          "internalType": "address",
          "name": "to",
          "type": "address"
        },
        {
          "indexed": false,
          "internalType": "uint256",
          "name": "amount",
          "type": "uint256"
        }
      ],
      "name": "CarbonCreditsTransferred",
      "type": "event"
    },
    {
      "anonymous": false,
      "inputs": [
        {
          "indexed": false,
          "internalType": "uint256",
          "name": "amount",
          "type": "uint256"
        }
      ],
      "name": "Deposit",
      "type": "event"
    },
    {
      "anonymous": false,
      "inputs": [
        {
          "indexed": false,
          "internalType": "uint256",
          "name": "amount",
          "type": "uint256"
        }
      ],
      "name": "Withdraw",
      "type": "event"
    },
    {
      "inputs": [],
      "name": "balance",
      "outputs": [
        {
          "internalType": "uint256",
          "name": "",
          "type": "uint256"
        }
      ],
      "stateMutability": "view",
      "type": "function"
    },
    {
      "inputs": [
        {
          "internalType": "uint256",
          "name": "amount",
          "type": "uint256"
        }
      ],
      "name": "burnCarbonCredits",
      "outputs": [],
      "stateMutability": "nonpayable",
      "type": "function"
    },
    {
      "inputs": [
        {
          "internalType": "uint256",
          "name": "_amount",
          "type": "uint256"
        }
      ],
      "name": "deposit",
      "outputs": [],
      "stateMutability": "payable",
      "type": "function"
    },
    {
      "inputs": [],
      "name": "getBalance",
      "outputs": [
        {
          "internalType": "uint256",
          "name": "",
          "type": "uint256"
        }
      ],
      "stateMutability": "view",
      "type": "function"
    },
    {
      "inputs": [
        {
          "internalType": "address",
          "name": "account",
          "type": "address"
        }
      ],
      "name": "getCarbonCredits",
      "outputs": [
        {
          "internalType": "uint256",
          "name": "",
          "type": "uint256"
        }
      ],
      "stateMutability": "view",
      "type": "function"
    },
    {
      "inputs": [],
      "name": "getTotalDeposited",
      "outputs": [
        {
          "internalType": "uint256",
          "name": "",
          "type": "uint256"
        }
      ],
      "stateMutability": "view",
      "type": "function"
    },
    {
      "inputs": [],
      "name": "getTotalWithdrawn",
      "outputs": [
        {
          "internalType": "uint256",
          "name": "",
          "type": "uint256"
        }
      ],
      "stateMutability": "view",
      "type": "function"
    },
    {
      "inputs": [
        {
          "internalType": "address",
          "name": "to",
          "type": "address"
        },
        {
          "internalType": "uint256",
          "name": "amount",
          "type": "uint256"
        }
      ],
      "name": "mintCarbonCredits",
      "outputs": [],
      "stateMutability": "nonpayable",
      "type": "function"
    },
    {
      "inputs": [],
      "name": "owner",
      "outputs": [
        {
          "internalType": "address payable",
          "name": "",
          "type": "address"
        }
      ],
      "stateMutability": "view",
      "type": "function"
    },
    {
      "inputs": [],
      "name": "totalDeposited",
      "outputs": [
        {
          "internalType": "uint256",
          "name": "",
          "type": "uint256"
        }
      ],
      "stateMutability": "view",
      "type": "function"
    },
    {
      "inputs": [],
      "name": "totalWithdrawn",
      "outputs": [
        {
          "internalType": "uint256",
          "name": "",
          "type": "uint256"
        }
      ],
      "stateMutability": "view",
      "type": "function"
    },
    {
      "inputs": [
        {
          "internalType": "address",
          "name": "to",
          "type": "address"
        },
        {
          "internalType": "uint256",
          "name": "amount",
          "type": "uint256"
        }
      ],
      "name": "transferCarbonCredits",
      "outputs": [],
      "stateMutability": "nonpayable",
      "type": "function"
    },
    {
      "inputs": [
        {
          "internalType": "uint256",
          "name": "_withdrawAmount",
          "type": "uint256"
        }
      ],
      "name": "withdraw",
      "outputs": [],
      "stateMutability": "nonpayable",
      "type": "function"
    }
  ],
  "bytecode": "0x60806040526040516200131b3803806200131b833981810160405281019061002791906100bf565b336000806101000a81548173ffffffffffffffffffffffffffffffffffffffff021916908373ffffffffffffffffffffffffffffffffffffffff1602179055508060018190555060006002819055506000600381905550506100ec565b600080fd5b6000819050919050565b61009c81610089565b81146100a757600080fd5b50565b6000815190506100b981610093565b92915050565b6000602082840312156100d5576100d4610084565b5b60006100e3848285016100aa565b91505092915050565b61121f80620000fc6000396000f3fe6080604052600436106100c25760003560e01c8063b193c2011161007f578063b6b55f2511610059578063b6b55f2514610258578063d2b1848914610274578063d7c7d5181461029d578063ff50abdc146102c6576100c2565b8063b193c201146101c5578063b68ef55914610202578063b69ef8a81461022d576100c2565b806312065fe0146100c75780632e1a7d4d146100f25780634b3197131461011b57806389404a79146101465780638da5cb5b14610171578063afcdd8131461019c575b600080fd5b3480156100d357600080fd5b506100dc6102f1565b6040516100e99190610b81565b60405180910390f35b3480156100fe57600080fd5b5061011960048036038101906101149190610bcd565b6102fb565b005b34801561012757600080fd5b506101306104d4565b60405161013d9190610b81565b60405180910390f35b34801561015257600080fd5b5061015b6104da565b6040516101689190610b81565b60405180910390f35b34801561017d57600080fd5b506101866104e4565b6040516101939190610c3b565b60405180910390f35b3480156101a857600080fd5b506101c360048036038101906101be9190610c94565b610508565b005b3480156101d157600080fd5b506101ec60048036038101906101e79190610cd4565b61069f565b6040516101f99190610b81565b60405180910390f35b34801561020e57600080fd5b506102176106e8565b6040516102249190610b81565b60405180910390f35b34801561023957600080fd5b506102426106f2565b60405161024f9190610b81565b60405180910390f35b610272600480360381019061026d9190610bcd565b6106f8565b005b34801561028057600080fd5b5061029b60048036038101906102969190610c94565b61088c565b005b3480156102a957600080fd5b506102c460048036038101906102bf9190610bcd565b6109db565b005b3480156102d257600080fd5b506102db610b62565b6040516102e89190610b81565b60405180910390f35b6000600154905090565b60008054906101000a900473ffffffffffffffffffffffffffffffffffffffff1673ffffffffffffffffffffffffffffffffffffffff163373ffffffffffffffffffffffffffffffffffffffff1614610389576040517f08c379a000000000000000000000000000000000000000000000000000000000815260040161038090610d84565b60405180910390fd5b60006001549050600082116103d3576040517f08c379a00000000000000000000000000000000000000000000000000000000081526004016103ca90610e16565b60405180910390fd5b816001541015610418576040517f08c379a000000000000000000000000000000000000000000000000000000000815260040161040f90610e82565b60405180910390fd5b816001600082825461042a9190610ed1565b9250508190555081600360008282546104439190610f05565b9250508190555081816104569190610ed1565b60015414610499576040517f08c379a000000000000000000000000000000000000000000000000000000000815260040161049090610fa7565b60405180910390fd5b7f5b6b431d4476a211bb7d41c20d1aab9ae2321deee0d20be3d9fc9b1093fa6e3d826040516104c89190610b81565b60405180910390a15050565b60035481565b6000600354905090565b60008054906101000a900473ffffffffffffffffffffffffffffffffffffffff1681565b80600460003373ffffffffffffffffffffffffffffffffffffffff1673ffffffffffffffffffffffffffffffffffffffff16815260200190815260200160002054101561058a576040517f08c379a000000000000000000000000000000000000000000000000000000000815260040161058190611013565b60405180910390fd5b80600460003373ffffffffffffffffffffffffffffffffffffffff1673ffffffffffffffffffffffffffffffffffffffff16815260200190815260200160002060008282546105d99190610ed1565b9250508190555080600460008473ffffffffffffffffffffffffffffffffffffffff1673ffffffffffffffffffffffffffffffffffffffff168152602001908152602001600020600082825461062f9190610f05565b925050819055508173ffffffffffffffffffffffffffffffffffffffff163373ffffffffffffffffffffffffffffffffffffffff167f4bddcd2adcae63181f5513ae0e14ae39dfd81f5d7f840faca9b8ce46caf7f77d836040516106939190610b81565b60405180910390a35050565b6000600460008373ffffffffffffffffffffffffffffffffffffffff1673ffffffffffffffffffffffffffffffffffffffff168152602001908152602001600020549050919050565b6000600254905090565b60015481565b6000600154905060008054906101000a900473ffffffffffffffffffffffffffffffffffffffff1673ffffffffffffffffffffffffffffffffffffffff163373ffffffffffffffffffffffffffffffffffffffff161461078d576040517f08c379a000000000000000000000000000000000000000000000000000000000815260040161078490610d84565b60405180910390fd5b600082116107d0576040517f08c379a00000000000000000000000000000000000000000000000000000000081526004016107c7906110a5565b60405180910390fd5b81600160008282546107e29190610f05565b9250508190555081600260008282546107fb9190610f05565b92505081905550818161080e9190610f05565b60015414610851576040517f08c379a000000000000000000000000000000000000000000000000000000000815260040161084890610fa7565b60405180910390fd5b7f4d6ce1e535dbade1c23defba91e23b8f791ce5edc0cc320257a2b364e4e38426826040516108809190610b81565b60405180910390a15050565b60008054906101000a900473ffffffffffffffffffffffffffffffffffffffff1673ffffffffffffffffffffffffffffffffffffffff163373ffffffffffffffffffffffffffffffffffffffff161461091a576040517f08c379a000000000000000000000000000000000000000000000000000000000815260040161091190611137565b60405180910390fd5b80600460008473ffffffffffffffffffffffffffffffffffffffff1673ffffffffffffffffffffffffffffffffffffffff16815260200190815260200160002060008282546109699190610f05565b9250508190555080600160008282546109829190610f05565b925050819055508173ffffffffffffffffffffffffffffffffffffffff167f37a4fd118e63fe1042dacdaacc5d8e1bc2cc11e60fc7207d14ef5c5b740a9280826040516109cf9190610b81565b60405180910390a25050565b80600460003373ffffffffffffffffffffffffffffffffffffffff1673ffffffffffffffffffffffffffffffffffffffff168152602001908152602001600020541015610a5d576040517f08c379a0000000000000000000000000000000000000000000000000000000008152600401610a5490611013565b60405180910390fd5b80600460003373ffffffffffffffffffffffffffffffffffffffff1673ffffffffffffffffffffffffffffffffffffffff1681526020019081526020016000206000828254610aac9190610ed1565b92505081905550806001541015610af8576040517f08c379a0000000000000000000000000000000000000000000000000000000008152600401610aef906111c9565b60405180910390fd5b8060016000828254610b0a9190610ed1565b925050819055503373ffffffffffffffffffffffffffffffffffffffff167f1add2bea5792218090e6f47b30249496bf03b6333d11155e9a2284406c5468f682604051610b579190610b81565b60405180910390a250565b60025481565b6000819050919050565b610b7b81610b68565b82525050565b6000602082019050610b966000830184610b72565b92915050565b600080fd5b610baa81610b68565b8114610bb557600080fd5b50565b600081359050610bc781610ba1565b92915050565b600060208284031215610be357610be2610b9c565b5b6000610bf184828501610bb8565b91505092915050565b600073ffffffffffffffffffffffffffffffffffffffff82169050919050565b6000610c2582610bfa565b9050919050565b610c3581610c1a565b82525050565b6000602082019050610c506000830184610c2c565b92915050565b6000610c6182610bfa565b9050919050565b610c7181610c56565b8114610c7c57600080fd5b50565b600081359050610c8e81610c68565b92915050565b60008060408385031215610cab57610caa610b9c565b5b6000610cb985828601610c7f565b9250506020610cca85828601610bb8565b9150509250929050565b600060208284031215610cea57610ce9610b9c565b5b6000610cf884828501610c7f565b91505092915050565b600082825260208201905092915050565b7f596f7520617265206e6f7420746865206f776e6572206f66207468697320616360008201527f636f756e74000000000000000000000000000000000000000000000000000000602082015250565b6000610d6e602583610d01565b9150610d7982610d12565b604082019050919050565b60006020820190508181036000830152610d9d81610d61565b9050919050565b7f5769746864726177616c20616d6f756e74206d7573742062652067726561746560008201527f72207468616e207a65726f000000000000000000000000000000000000000000602082015250565b6000610e00602b83610d01565b9150610e0b82610da4565b604082019050919050565b60006020820190508181036000830152610e2f81610df3565b9050919050565b7f496e73756666696369656e742062616c616e6365000000000000000000000000600082015250565b6000610e6c601483610d01565b9150610e7782610e36565b602082019050919050565b60006020820190508181036000830152610e9b81610e5f565b9050919050565b7f4e487b7100000000000000000000000000000000000000000000000000000000600052601160045260246000fd5b6000610edc82610b68565b9150610ee783610b68565b925082821015610efa57610ef9610ea2565b5b828203905092915050565b6000610f1082610b68565b9150610f1b83610b68565b9250827fffffffffffffffffffffffffffffffffffffffffffffffffffffffffffffffff03821115610f5057610f4f610ea2565b5b828201905092915050565b7f42616c616e636520757064617465206661696c65640000000000000000000000600082015250565b6000610f91601583610d01565b9150610f9c82610f5b565b602082019050919050565b60006020820190508181036000830152610fc081610f84565b9050919050565b7f496e73756666696369656e7420636172626f6e20637265646974730000000000600082015250565b6000610ffd601b83610d01565b915061100882610fc7565b602082019050919050565b6000602082019050818103600083015261102c81610ff0565b9050919050565b7f4465706f73697420616d6f756e74206d7573742062652067726561746572207460008201527f68616e207a65726f000000000000000000000000000000000000000000000000602082015250565b600061108f602883610d01565b915061109a82611033565b604082019050919050565b600060208201905081810360008301526110be81611082565b9050919050565b7f4f6e6c7920746865206f776e65722063616e206d696e7420636172626f6e206360008201527f7265646974730000000000000000000000000000000000000000000000000000602082015250565b6000611121602683610d01565b915061112c826110c5565b604082019050919050565b6000602082019050818103600083015261115081611114565b9050919050565b7f436f6e74726163742062616c616e636520696e73756666696369656e7420746f60008201527f206275726e206372656469747300000000000000000000000000000000000000602082015250565b60006111b3602d83610d01565b91506111be82611157565b604082019050919050565b600060208201905081810360008301526111e2816111a6565b905091905056fea2646970667358221220dbafb56b76009e3223546cb4afa6fd5f16f4434eae29cd561937c486d7fd138764736f6c63430008090033",
  "linkReferences": {},
  "deployedLinkReferences": {}
}