{"contracts/CarbonCredit.sol":{"CarbonCreditPlatform":{"abi":[{"inputs":[{"internalType":"uint256","name":"initBalance","type":"uint256"}],"stateMutability":"payable","type":"constructor"},{"inputs":[{"internalType":"uint256","name":"balance","type":"uint256"},{"internalType":"uint256","name":"withdrawAmount","type":"uint256"}],"name":"InsufficientBalance","type":"error"},{"anonymous":false,"inputs":[{"indexed":true,"internalType":"address","name":"user","type":"address"},{"indexed":false,"internalType":"uint256","name":"amount","type":"uint256"}],"name":"CarbonCreditsBurned","type":"event"},{"anonymous":false,"inputs":[{"indexed":true,"internalType":"address","name":"user","type":"address"},{"indexed":false,"internalType":"uint256","name":"amount","type":"uint256"}],"name":"CarbonCreditsMinted","type":"event"},{"anonymous":false,"inputs":[{"indexed":true,"internalType":"address","name":"from","type":"address"},{"indexed":true,"internalType":"address","name":"to","type":"address"},{"indexed":false,"internalType":"uint256","name":"amount","type":"uint256"}],"name":"CarbonCreditsTransferred","type":"event"},{"anonymous":false,"inputs":[{"indexed":false,"internalType":"uint256","name":"amount","type":"uint256"}],"name":"Deposit","type":"event"},{"anonymous":false,"inputs":[{"indexed":false,"internalType":"uint256","name":"amount","type":"uint256"}],"name":"Withdraw","type":"event"},{"inputs":[],"name":"balance","outputs":[{"internalType":"uint256","name":"","type":"uint256"}],"stateMutability":"view","type":"function"},{"inputs":[{"internalType":"uint256","name":"amount","type":"uint256"}],"name":"burnCarbonCredits","outputs":[],"stateMutability":"nonpayable","type":"function"},{"inputs":[{"internalType":"uint256","name":"_amount","type":"uint256"}],"name":"deposit","outputs":[],"stateMutability":"payable","type":"function"},{"inputs":[],"name":"getBalance","outputs":[{"internalType":"uint256","name":"","type":"uint256"}],"stateMutability":"view","type":"function"},{"inputs":[{"internalType":"address","name":"account","type":"address"}],"name":"getCarbonCredits","outputs":[{"internalType":"uint256","name":"","type":"uint256"}],"stateMutability":"view","type":"function"},{"inputs":[],"name":"getTotalDeposited","outputs":[{"internalType":"uint256","name":"","type":"uint256"}],"stateMutability":"view","type":"function"},{"inputs":[],"name":"getTotalWithdrawn","outputs":[{"internalType":"uint256","name":"","type":"uint256"}],"stateMutability":"view","type":"function"},{"inputs":[{"internalType":"address","name":"to","type":"address"},{"internalType":"uint256","name":"amount","type":"uint256"}],"name":"mintCarbonCredits","outputs":[],"stateMutability":"nonpayable","type":"function"},{"inputs":[],"name":"owner","outputs":[{"internalType":"address payable","name":"","type":"address"}],"stateMutability":"view","type":"function"},{"inputs":[],"name":"totalDeposited","outputs":[{"internalType":"uint256","name":"","type":"uint256"}],"stateMutability":"view","type":"function"},{"inputs":[],"name":"totalWithdrawn","outputs":[{"internalType":"uint256","name":"","type":"uint256"}],"stateMutability":"view","type":"function"},{"inputs":[{"internalType":"address","name":"to","type":"address"},{"internalType":"uint256","name":"amount","type":"uint256"}],"name":"transferCarbonCredits","outputs":[],"stateMutability":"nonpayable","type":"function"},{"inputs":[{"internalType":"uint256","name":"_withdrawAmount","type":"uint256"}],"name":"withdraw","outputs":[],"stateMutability":"nonpayable","type":"function"}],"evm":{"bytecode":{"linkReferences":{},"object":"6080604052604051610a02380380610a0283398101604081905261002291610047565b600080546001600160a01b031916331781556001919091556002819055600355610060565b60006020828403121561005957600080fd5b5051919050565b6109938061006f6000396000f3fe6080604052600436106100c25760003560e01c8063b193c2011161007f578063b6b55f2511610059578063b6b55f25146101f1578063d2b1848914610204578063d7c7d51814610224578063ff50abdc1461024457600080fd5b8063b193c20114610190578063b68ef559146101c6578063b69ef8a8146101db57600080fd5b806312065fe0146100c75780632e1a7d4d146100eb5780634b3197131461010d57806389404a79146101235780638da5cb5b14610138578063afcdd81314610170575b600080fd5b3480156100d357600080fd5b506001545b6040519081526020015b60405180910390f35b3480156100f757600080fd5b5061010b610106366004610855565b61025a565b005b34801561011957600080fd5b506100d860035481565b34801561012f57600080fd5b506003546100d8565b34801561014457600080fd5b50600054610158906001600160a01b031681565b6040516001600160a01b0390911681526020016100e2565b34801561017c57600080fd5b5061010b61018b36600461088a565b6103f5565b34801561019c57600080fd5b506100d86101ab3660046108b4565b6001600160a01b031660009081526004602052604090205490565b3480156101d257600080fd5b506002546100d8565b3480156101e757600080fd5b506100d860015481565b61010b6101ff366004610855565b6104e9565b34801561021057600080fd5b5061010b61021f36600461088a565b61062a565b34801561023057600080fd5b5061010b61023f366004610855565b61071b565b34801561025057600080fd5b506100d860025481565b6000546001600160a01b0316331461028d5760405162461bcd60e51b8152600401610284906108d6565b60405180910390fd5b600154816102f15760405162461bcd60e51b815260206004820152602b60248201527f5769746864726177616c20616d6f756e74206d7573742062652067726561746560448201526a72207468616e207a65726f60a81b6064820152608401610284565b81600154101561033a5760405162461bcd60e51b8152602060048201526014602482015273496e73756666696369656e742062616c616e636560601b6044820152606401610284565b816001600082825461034c9190610931565b925050819055508160036000828254610365919061094a565b9091555061037590508282610931565b600154146103bd5760405162461bcd60e51b815260206004820152601560248201527410985b185b98d9481d5c19185d194819985a5b1959605a1b6044820152606401610284565b6040518281527f5b6b431d4476a211bb7d41c20d1aab9ae2321deee0d20be3d9fc9b1093fa6e3d906020015b60405180910390a15050565b336000908152600460205260409020548111156104545760405162461bcd60e51b815260206004820152601b60248201527f496e73756666696369656e7420636172626f6e206372656469747300000000006044820152606401610284565b3360009081526004602052604081208054839290610473908490610931565b90915550506001600160a01b038216600090815260046020526040812080548392906104a090849061094a565b90915550506040518181526001600160a01b0383169033907f4bddcd2adcae63181f5513ae0e14ae39dfd81f5d7f840faca9b8ce46caf7f77d9060200160405180910390a35050565b6001546000546001600160a01b031633146105165760405162461bcd60e51b8152600401610284906108d6565b600082116105775760405162461bcd60e51b815260206004820152602860248201527f4465706f73697420616d6f756e74206d7573742062652067726561746572207460448201526768616e207a65726f60c01b6064820152608401610284565b8160016000828254610589919061094a565b9250508190555081600260008282546105a2919061094a565b909155506105b29050828261094a565b600154146105fa5760405162461bcd60e51b815260206004820152601560248201527410985b185b98d9481d5c19185d194819985a5b1959605a1b6044820152606401610284565b6040518281527f4d6ce1e535dbade1c23defba91e23b8f791ce5edc0cc320257a2b364e4e38426906020016103e9565b6000546001600160a01b031633146106935760405162461bcd60e51b815260206004820152602660248201527f4f6e6c7920746865206f776e65722063616e206d696e7420636172626f6e206360448201526572656469747360d01b6064820152608401610284565b6001600160a01b038216600090815260046020526040812080548392906106bb90849061094a565b9250508190555080600160008282546106d4919061094a565b90915550506040518181526001600160a01b038316907f37a4fd118e63fe1042dacdaacc5d8e1bc2cc11e60fc7207d14ef5c5b740a92809060200160405180910390a25050565b3360009081526004602052604090205481111561077a5760405162461bcd60e51b815260206004820152601b60248201527f496e73756666696369656e7420636172626f6e206372656469747300000000006044820152606401610284565b3360009081526004602052604081208054839290610799908490610931565b90915550506001548111156108065760405162461bcd60e51b815260206004820152602d60248201527f436f6e74726163742062616c616e636520696e73756666696369656e7420746f60448201526c206275726e206372656469747360981b6064820152608401610284565b80600160008282546108189190610931565b909155505060405181815233907f1add2bea5792218090e6f47b30249496bf03b6333d11155e9a2284406c5468f69060200160405180910390a250565b60006020828403121561086757600080fd5b5035919050565b80356001600160a01b038116811461088557600080fd5b919050565b6000806040838503121561089d57600080fd5b6108a68361086e565b946020939093013593505050565b6000602082840312156108c657600080fd5b6108cf8261086e565b9392505050565b60208082526025908201527f596f7520617265206e6f7420746865206f776e6572206f66207468697320616360408201526418dbdd5b9d60da1b606082015260800190565b634e487b7160e01b600052601160045260246000fd5b818103818111156109445761094461091b565b92915050565b808201808211156109445761094461091b56fea26469706673582212203f6af63e1c2cfdb8068a2631fada2deaacef5e04618276df663ef8320563e86564736f6c63430008140033","opcodes":"PUSH1 0x80 PUSH1 0x40 MSTORE PUSH1 0x40 MLOAD PUSH2 0xA02 CODESIZE SUB DUP1 PUSH2 0xA02 DUP4 CODECOPY DUP2 ADD PUSH1 0x40 DUP2 SWAP1 MSTORE PUSH2 0x22 SWAP2 PUSH2 0x47 JUMP JUMPDEST PUSH1 0x0 DUP1 SLOAD PUSH1 0x1 PUSH1 0x1 PUSH1 0xA0 SHL SUB NOT AND CALLER OR DUP2 SSTORE PUSH1 0x1 SWAP2 SWAP1 SWAP2 SSTORE PUSH1 0x2 DUP2 SWAP1 SSTORE PUSH1 0x3 SSTORE PUSH2 0x60 JUMP JUMPDEST PUSH1 0x0 PUSH1 0x20 DUP3 DUP5 SUB SLT ISZERO PUSH2 0x59 JUMPI PUSH1 0x0 DUP1 REVERT JUMPDEST POP MLOAD SWAP2 SWAP1 POP JUMP JUMPDEST PUSH2 0x993 DUP1 PUSH2 0x6F PUSH1 0x0 CODECOPY PUSH1 0x0 RETURN INVALID PUSH1 0x80 PUSH1 0x40 MSTORE PUSH1 0x4 CALLDATASIZE LT PUSH2 0xC2 JUMPI PUSH1 0x0 CALLDATALOAD PUSH1 0xE0 SHR DUP1 PUSH4 0xB193C201 GT PUSH2 0x7F JUMPI DUP1 PUSH4 0xB6B55F25 GT PUSH2 0x59 JUMPI DUP1 PUSH4 0xB6B55F25 EQ PUSH2 0x1F1 JUMPI DUP1 PUSH4 0xD2B18489 EQ PUSH2 0x204 JUMPI DUP1 PUSH4 0xD7C7D518 EQ PUSH2 0x224 JUMPI DUP1 PUSH4 0xFF50ABDC EQ PUSH2 0x244 JUMPI PUSH1 0x0 DUP1 REVERT JUMPDEST DUP1 PUSH4 0xB193C201 EQ PUSH2 0x190 JUMPI DUP1 PUSH4 0xB68EF559 EQ PUSH2 0x1C6 JUMPI DUP1 PUSH4 0xB69EF8A8 EQ PUSH2 0x1DB JUMPI PUSH1 0x0 DUP1 REVERT JUMPDEST DUP1 PUSH4 0x12065FE0 EQ PUSH2 0xC7 JUMPI DUP1 PUSH4 0x2E1A7D4D EQ PUSH2 0xEB JUMPI DUP1 PUSH4 0x4B319713 EQ PUSH2 0x10D JUMPI DUP1 PUSH4 0x89404A79 EQ PUSH2 0x123 JUMPI DUP1 PUSH4 0x8DA5CB5B EQ PUSH2 0x138 JUMPI DUP1 PUSH4 0xAFCDD813 EQ PUSH2 0x170 JUMPI JUMPDEST PUSH1 0x0 DUP1 REVERT JUMPDEST CALLVALUE DUP1 ISZERO PUSH2 0xD3 JUMPI PUSH1 0x0 DUP1 REVERT JUMPDEST POP PUSH1 0x1 SLOAD JUMPDEST PUSH1 0x40 MLOAD SWAP1 DUP2 MSTORE PUSH1 0x20 ADD JUMPDEST PUSH1 0x40 MLOAD DUP1 SWAP2 SUB SWAP1 RETURN JUMPDEST CALLVALUE DUP1 ISZERO PUSH2 0xF7 JUMPI PUSH1 0x0 DUP1 REVERT JUMPDEST POP PUSH2 0x10B PUSH2 0x106 CALLDATASIZE PUSH1 0x4 PUSH2 0x855 JUMP JUMPDEST PUSH2 0x25A JUMP JUMPDEST STOP JUMPDEST CALLVALUE DUP1 ISZERO PUSH2 0x119 JUMPI PUSH1 0x0 DUP1 REVERT JUMPDEST POP PUSH2 0xD8 PUSH1 0x3 SLOAD DUP2 JUMP JUMPDEST CALLVALUE DUP1 ISZERO PUSH2 0x12F JUMPI PUSH1 0x0 DUP1 REVERT JUMPDEST POP PUSH1 0x3 SLOAD PUSH2 0xD8 JUMP JUMPDEST CALLVALUE DUP1 ISZERO PUSH2 0x144 JUMPI PUSH1 0x0 DUP1 REVERT JUMPDEST POP PUSH1 0x0 SLOAD PUSH2 0x158 SWAP1 PUSH1 0x1 PUSH1 0x1 PUSH1 0xA0 SHL SUB AND DUP2 JUMP JUMPDEST PUSH1 0x40 MLOAD PUSH1 0x1 PUSH1 0x1 PUSH1 0xA0 SHL SUB SWAP1 SWAP2 AND DUP2 MSTORE PUSH1 0x20 ADD PUSH2 0xE2 JUMP JUMPDEST CALLVALUE DUP1 ISZERO PUSH2 0x17C JUMPI PUSH1 0x0 DUP1 REVERT JUMPDEST POP PUSH2 0x10B PUSH2 0x18B CALLDATASIZE PUSH1 0x4 PUSH2 0x88A JUMP JUMPDEST PUSH2 0x3F5 JUMP JUMPDEST CALLVALUE DUP1 ISZERO PUSH2 0x19C JUMPI PUSH1 0x0 DUP1 REVERT JUMPDEST POP PUSH2 0xD8 PUSH2 0x1AB CALLDATASIZE PUSH1 0x4 PUSH2 0x8B4 JUMP JUMPDEST PUSH1 0x1 PUSH1 0x1 PUSH1 0xA0 SHL SUB AND PUSH1 0x0 SWAP1 DUP2 MSTORE PUSH1 0x4 PUSH1 0x20 MSTORE PUSH1 0x40 SWAP1 KECCAK256 SLOAD SWAP1 JUMP JUMPDEST CALLVALUE DUP1 ISZERO PUSH2 0x1D2 JUMPI PUSH1 0x0 DUP1 REVERT JUMPDEST POP PUSH1 0x2 SLOAD PUSH2 0xD8 JUMP JUMPDEST CALLVALUE DUP1 ISZERO PUSH2 0x1E7 JUMPI PUSH1 0x0 DUP1 REVERT JUMPDEST POP PUSH2 0xD8 PUSH1 0x1 SLOAD DUP2 JUMP JUMPDEST PUSH2 0x10B PUSH2 0x1FF CALLDATASIZE PUSH1 0x4 PUSH2 0x855 JUMP JUMPDEST PUSH2 0x4E9 JUMP JUMPDEST CALLVALUE DUP1 ISZERO PUSH2 0x210 JUMPI PUSH1 0x0 DUP1 REVERT JUMPDEST POP PUSH2 0x10B PUSH2 0x21F CALLDATASIZE PUSH1 0x4 PUSH2 0x88A JUMP JUMPDEST PUSH2 0x62A JUMP JUMPDEST CALLVALUE DUP1 ISZERO PUSH2 0x230 JUMPI PUSH1 0x0 DUP1 REVERT JUMPDEST POP PUSH2 0x10B PUSH2 0x23F CALLDATASIZE PUSH1 0x4 PUSH2 0x855 JUMP JUMPDEST PUSH2 0x71B JUMP JUMPDEST CALLVALUE DUP1 ISZERO PUSH2 0x250 JUMPI PUSH1 0x0 DUP1 REVERT JUMPDEST POP PUSH2 0xD8 PUSH1 0x2 SLOAD DUP2 JUMP JUMPDEST PUSH1 0x0 SLOAD PUSH1 0x1 PUSH1 0x1 PUSH1 0xA0 SHL SUB AND CALLER EQ PUSH2 0x28D JUMPI PUSH1 0x40 MLOAD PUSH3 0x461BCD PUSH1 0xE5 SHL DUP2 MSTORE PUSH1 0x4 ADD PUSH2 0x284 SWAP1 PUSH2 0x8D6 JUMP JUMPDEST PUSH1 0x40 MLOAD DUP1 SWAP2 SUB SWAP1 REVERT JUMPDEST PUSH1 0x1 SLOAD DUP2 PUSH2 0x2F1 JUMPI PUSH1 0x40 MLOAD PUSH3 0x461BCD PUSH1 0xE5 SHL DUP2 MSTORE PUSH1 0x20 PUSH1 0x4 DUP3 ADD MSTORE PUSH1 0x2B PUSH1 0x24 DUP3 ADD MSTORE PUSH32 0x5769746864726177616C20616D6F756E74206D75737420626520677265617465 PUSH1 0x44 DUP3 ADD MSTORE PUSH11 0x72207468616E207A65726F PUSH1 0xA8 SHL PUSH1 0x64 DUP3 ADD MSTORE PUSH1 0x84 ADD PUSH2 0x284 JUMP JUMPDEST DUP2 PUSH1 0x1 SLOAD LT ISZERO PUSH2 0x33A JUMPI PUSH1 0x40 MLOAD PUSH3 0x461BCD PUSH1 0xE5 SHL DUP2 MSTORE PUSH1 0x20 PUSH1 0x4 DUP3 ADD MSTORE PUSH1 0x14 PUSH1 0x24 DUP3 ADD MSTORE PUSH20 0x496E73756666696369656E742062616C616E6365 PUSH1 0x60 SHL PUSH1 0x44 DUP3 ADD MSTORE PUSH1 0x64 ADD PUSH2 0x284 JUMP JUMPDEST DUP2 PUSH1 0x1 PUSH1 0x0 DUP3 DUP3 SLOAD PUSH2 0x34C SWAP2 SWAP1 PUSH2 0x931 JUMP JUMPDEST SWAP3 POP POP DUP2 SWAP1 SSTORE POP DUP2 PUSH1 0x3 PUSH1 0x0 DUP3 DUP3 SLOAD PUSH2 0x365 SWAP2 SWAP1 PUSH2 0x94A JUMP JUMPDEST SWAP1 SWAP2 SSTORE POP PUSH2 0x375 SWAP1 POP DUP3 DUP3 PUSH2 0x931 JUMP JUMPDEST PUSH1 0x1 SLOAD EQ PUSH2 0x3BD JUMPI PUSH1 0x40 MLOAD PUSH3 0x461BCD PUSH1 0xE5 SHL DUP2 MSTORE PUSH1 0x20 PUSH1 0x4 DUP3 ADD MSTORE PUSH1 0x15 PUSH1 0x24 DUP3 ADD MSTORE PUSH21 0x10985B185B98D9481D5C19185D194819985A5B1959 PUSH1 0x5A SHL PUSH1 0x44 DUP3 ADD MSTORE PUSH1 0x64 ADD PUSH2 0x284 JUMP JUMPDEST PUSH1 0x40 MLOAD DUP3 DUP2 MSTORE PUSH32 0x5B6B431D4476A211BB7D41C20D1AAB9AE2321DEEE0D20BE3D9FC9B1093FA6E3D SWAP1 PUSH1 0x20 ADD JUMPDEST PUSH1 0x40 MLOAD DUP1 SWAP2 SUB SWAP1 LOG1 POP POP JUMP JUMPDEST CALLER PUSH1 0x0 SWAP1 DUP2 MSTORE PUSH1 0x4 PUSH1 0x20 MSTORE PUSH1 0x40 SWAP1 KECCAK256 SLOAD DUP2 GT ISZERO PUSH2 0x454 JUMPI PUSH1 0x40 MLOAD PUSH3 0x461BCD PUSH1 0xE5 SHL DUP2 MSTORE PUSH1 0x20 PUSH1 0x4 DUP3 ADD MSTORE PUSH1 0x1B PUSH1 0x24 DUP3 ADD MSTORE PUSH32 0x496E73756666696369656E7420636172626F6E20637265646974730000000000 PUSH1 0x44 DUP3 ADD MSTORE PUSH1 0x64 ADD PUSH2 0x284 JUMP JUMPDEST CALLER PUSH1 0x0 SWAP1 DUP2 MSTORE PUSH1 0x4 PUSH1 0x20 MSTORE PUSH1 0x40 DUP2 KECCAK256 DUP1 SLOAD DUP4 SWAP3 SWAP1 PUSH2 0x473 SWAP1 DUP5 SWAP1 PUSH2 0x931 JUMP JUMPDEST SWAP1 SWAP2 SSTORE POP POP PUSH1 0x1 PUSH1 0x1 PUSH1 0xA0 SHL SUB DUP3 AND PUSH1 0x0 SWAP1 DUP2 MSTORE PUSH1 0x4 PUSH1 0x20 MSTORE PUSH1 0x40 DUP2 KECCAK256 DUP1 SLOAD DUP4 SWAP3 SWAP1 PUSH2 0x4A0 SWAP1 DUP5 SWAP1 PUSH2 0x94A JUMP JUMPDEST SWAP1 SWAP2 SSTORE POP POP PUSH1 0x40 MLOAD DUP2 DUP2 MSTORE PUSH1 0x1 PUSH1 0x1 PUSH1 0xA0 SHL SUB DUP4 AND SWAP1 CALLER SWAP1 PUSH32 0x4BDDCD2ADCAE63181F5513AE0E14AE39DFD81F5D7F840FACA9B8CE46CAF7F77D SWAP1 PUSH1 0x20 ADD PUSH1 0x40 MLOAD DUP1 SWAP2 SUB SWAP1 LOG3 POP POP JUMP JUMPDEST PUSH1 0x1 SLOAD PUSH1 0x0 SLOAD PUSH1 0x1 PUSH1 0x1 PUSH1 0xA0 SHL SUB AND CALLER EQ PUSH2 0x516 JUMPI PUSH1 0x40 MLOAD PUSH3 0x461BCD PUSH1 0xE5 SHL DUP2 MSTORE PUSH1 0x4 ADD PUSH2 0x284 SWAP1 PUSH2 0x8D6 JUMP JUMPDEST PUSH1 0x0 DUP3 GT PUSH2 0x577 JUMPI PUSH1 0x40 MLOAD PUSH3 0x461BCD PUSH1 0xE5 SHL DUP2 MSTORE PUSH1 0x20 PUSH1 0x4 DUP3 ADD MSTORE PUSH1 0x28 PUSH1 0x24 DUP3 ADD MSTORE PUSH32 0x4465706F73697420616D6F756E74206D75737420626520677265617465722074 PUSH1 0x44 DUP3 ADD MSTORE PUSH8 0x68616E207A65726F PUSH1 0xC0 SHL PUSH1 0x64 DUP3 ADD MSTORE PUSH1 0x84 ADD PUSH2 0x284 JUMP JUMPDEST DUP2 PUSH1 0x1 PUSH1 0x0 DUP3 DUP3 SLOAD PUSH2 0x589 SWAP2 SWAP1 PUSH2 0x94A JUMP JUMPDEST SWAP3 POP POP DUP2 SWAP1 SSTORE POP DUP2 PUSH1 0x2 PUSH1 0x0 DUP3 DUP3 SLOAD PUSH2 0x5A2 SWAP2 SWAP1 PUSH2 0x94A JUMP JUMPDEST SWAP1 SWAP2 SSTORE POP PUSH2 0x5B2 SWAP1 POP DUP3 DUP3 PUSH2 0x94A JUMP JUMPDEST PUSH1 0x1 SLOAD EQ PUSH2 0x5FA JUMPI PUSH1 0x40 MLOAD PUSH3 0x461BCD PUSH1 0xE5 SHL DUP2 MSTORE PUSH1 0x20 PUSH1 0x4 DUP3 ADD MSTORE PUSH1 0x15 PUSH1 0x24 DUP3 ADD MSTORE PUSH21 0x10985B185B98D9481D5C19185D194819985A5B1959 PUSH1 0x5A SHL PUSH1 0x44 DUP3 ADD MSTORE PUSH1 0x64 ADD PUSH2 0x284 JUMP JUMPDEST PUSH1 0x40 MLOAD DUP3 DUP2 MSTORE PUSH32 0x4D6CE1E535DBADE1C23DEFBA91E23B8F791CE5EDC0CC320257A2B364E4E38426 SWAP1 PUSH1 0x20 ADD PUSH2 0x3E9 JUMP JUMPDEST PUSH1 0x0 SLOAD PUSH1 0x1 PUSH1 0x1 PUSH1 0xA0 SHL SUB AND CALLER EQ PUSH2 0x693 JUMPI PUSH1 0x40 MLOAD PUSH3 0x461BCD PUSH1 0xE5 SHL DUP2 MSTORE PUSH1 0x20 PUSH1 0x4 DUP3 ADD MSTORE PUSH1 0x26 PUSH1 0x24 DUP3 ADD MSTORE PUSH32 0x4F6E6C7920746865206F776E65722063616E206D696E7420636172626F6E2063 PUSH1 0x44 DUP3 ADD MSTORE PUSH6 0x726564697473 PUSH1 0xD0 SHL PUSH1 0x64 DUP3 ADD MSTORE PUSH1 0x84 ADD PUSH2 0x284 JUMP JUMPDEST PUSH1 0x1 PUSH1 0x1 PUSH1 0xA0 SHL SUB DUP3 AND PUSH1 0x0 SWAP1 DUP2 MSTORE PUSH1 0x4 PUSH1 0x20 MSTORE PUSH1 0x40 DUP2 KECCAK256 DUP1 SLOAD DUP4 SWAP3 SWAP1 PUSH2 0x6BB SWAP1 DUP5 SWAP1 PUSH2 0x94A JUMP JUMPDEST SWAP3 POP POP DUP2 SWAP1 SSTORE POP DUP1 PUSH1 0x1 PUSH1 0x0 DUP3 DUP3 SLOAD PUSH2 0x6D4 SWAP2 SWAP1 PUSH2 0x94A JUMP JUMPDEST SWAP1 SWAP2 SSTORE POP POP PUSH1 0x40 MLOAD DUP2 DUP2 MSTORE PUSH1 0x1 PUSH1 0x1 PUSH1 0xA0 SHL SUB DUP4 AND SWAP1 PUSH32 0x37A4FD118E63FE1042DACDAACC5D8E1BC2CC11E60FC7207D14EF5C5B740A9280 SWAP1 PUSH1 0x20 ADD PUSH1 0x40 MLOAD DUP1 SWAP2 SUB SWAP1 LOG2 POP POP JUMP JUMPDEST CALLER PUSH1 0x0 SWAP1 DUP2 MSTORE PUSH1 0x4 PUSH1 0x20 MSTORE PUSH1 0x40 SWAP1 KECCAK256 SLOAD DUP2 GT ISZERO PUSH2 0x77A JUMPI PUSH1 0x40 MLOAD PUSH3 0x461BCD PUSH1 0xE5 SHL DUP2 MSTORE PUSH1 0x20 PUSH1 0x4 DUP3 ADD MSTORE PUSH1 0x1B PUSH1 0x24 DUP3 ADD MSTORE PUSH32 0x496E73756666696369656E7420636172626F6E20637265646974730000000000 PUSH1 0x44 DUP3 ADD MSTORE PUSH1 0x64 ADD PUSH2 0x284 JUMP JUMPDEST CALLER PUSH1 0x0 SWAP1 DUP2 MSTORE PUSH1 0x4 PUSH1 0x20 MSTORE PUSH1 0x40 DUP2 KECCAK256 DUP1 SLOAD DUP4 SWAP3 SWAP1 PUSH2 0x799 SWAP1 DUP5 SWAP1 PUSH2 0x931 JUMP JUMPDEST SWAP1 SWAP2 SSTORE POP POP PUSH1 0x1 SLOAD DUP2 GT ISZERO PUSH2 0x806 JUMPI PUSH1 0x40 MLOAD PUSH3 0x461BCD PUSH1 0xE5 SHL DUP2 MSTORE PUSH1 0x20 PUSH1 0x4 DUP3 ADD MSTORE PUSH1 0x2D PUSH1 0x24 DUP3 ADD MSTORE PUSH32 0x436F6E74726163742062616C616E636520696E73756666696369656E7420746F PUSH1 0x44 DUP3 ADD MSTORE PUSH13 0x206275726E2063726564697473 PUSH1 0x98 SHL PUSH1 0x64 DUP3 ADD MSTORE PUSH1 0x84 ADD PUSH2 0x284 JUMP JUMPDEST DUP1 PUSH1 0x1 PUSH1 0x0 DUP3 DUP3 SLOAD PUSH2 0x818 SWAP2 SWAP1 PUSH2 0x931 JUMP JUMPDEST SWAP1 SWAP2 SSTORE POP POP PUSH1 0x40 MLOAD DUP2 DUP2 MSTORE CALLER SWAP1 PUSH32 0x1ADD2BEA5792218090E6F47B30249496BF03B6333D11155E9A2284406C5468F6 SWAP1 PUSH1 0x20 ADD PUSH1 0x40 MLOAD DUP1 SWAP2 SUB SWAP1 LOG2 POP JUMP JUMPDEST PUSH1 0x0 PUSH1 0x20 DUP3 DUP5 SUB SLT ISZERO PUSH2 0x867 JUMPI PUSH1 0x0 DUP1 REVERT JUMPDEST POP CALLDATALOAD SWAP2 SWAP1 POP JUMP JUMPDEST DUP1 CALLDATALOAD PUSH1 0x1 PUSH1 0x1 PUSH1 0xA0 SHL SUB DUP2 AND DUP2 EQ PUSH2 0x885 JUMPI PUSH1 0x0 DUP1 REVERT JUMPDEST SWAP2 SWAP1 POP JUMP JUMPDEST PUSH1 0x0 DUP1 PUSH1 0x40 DUP4 DUP6 SUB SLT ISZERO PUSH2 0x89D JUMPI PUSH1 0x0 DUP1 REVERT JUMPDEST PUSH2 0x8A6 DUP4 PUSH2 0x86E JUMP JUMPDEST SWAP5 PUSH1 0x20 SWAP4 SWAP1 SWAP4 ADD CALLDATALOAD SWAP4 POP POP POP JUMP JUMPDEST PUSH1 0x0 PUSH1 0x20 DUP3 DUP5 SUB SLT ISZERO PUSH2 0x8C6 JUMPI PUSH1 0x0 DUP1 REVERT JUMPDEST PUSH2 0x8CF DUP3 PUSH2 0x86E JUMP JUMPDEST SWAP4 SWAP3 POP POP POP JUMP JUMPDEST PUSH1 0x20 DUP1 DUP3 MSTORE PUSH1 0x25 SWAP1 DUP3 ADD MSTORE PUSH32 0x596F7520617265206E6F7420746865206F776E6572206F662074686973206163 PUSH1 0x40 DUP3 ADD MSTORE PUSH5 0x18DBDD5B9D PUSH1 0xDA SHL PUSH1 0x60 DUP3 ADD MSTORE PUSH1 0x80 ADD SWAP1 JUMP JUMPDEST PUSH4 0x4E487B71 PUSH1 0xE0 SHL PUSH1 0x0 MSTORE PUSH1 0x11 PUSH1 0x4 MSTORE PUSH1 0x24 PUSH1 0x0 REVERT JUMPDEST DUP2 DUP2 SUB DUP2 DUP2 GT ISZERO PUSH2 0x944 JUMPI PUSH2 0x944 PUSH2 0x91B JUMP JUMPDEST SWAP3 SWAP2 POP POP JUMP JUMPDEST DUP1 DUP3 ADD DUP1 DUP3 GT ISZERO PUSH2 0x944 JUMPI PUSH2 0x944 PUSH2 0x91B JUMP INVALID LOG2 PUSH5 0x6970667358 0x22 SLT KECCAK256 EXTCODEHASH PUSH11 0xF63E1C2CFDB8068A2631FA 0xDA 0x2D 0xEA 0xAC 0xEF 0x5E DIV PUSH2 0x8276 0xDF PUSH7 0x3EF8320563E865 PUSH5 0x736F6C6343 STOP ADDMOD EQ STOP CALLER "},"methodIdentifiers":{"balance()":"b69ef8a8","burnCarbonCredits(uint256)":"d7c7d518","deposit(uint256)":"b6b55f25","getBalance()":"12065fe0","getCarbonCredits(address)":"b193c201","getTotalDeposited()":"b68ef559","getTotalWithdrawn()":"89404a79","mintCarbonCredits(address,uint256)":"d2b18489","owner()":"8da5cb5b","totalDeposited()":"ff50abdc","totalWithdrawn()":"4b319713","transferCarbonCredits(address,uint256)":"afcdd813","withdraw(uint256)":"2e1a7d4d"}}}}}