{
  "_format": "hh-sol-artifact-1",
  "contractName": "CarbonCreditPlatform",
  "sourceName": "contracts/CarbonCredit.sol",
  "abi": [
    {
      "inputs": [
        {
          "internalType": "uint256",
          "name": "initBalance",
          "type": "uint256"
        }
      ],
      "stateMutability": "payable",
      "type": "constructor"
    },
    {
      "inputs": [
        {
          "internalType": "uint256",
          "name": "balance",
          "type": "uint256"
        },
        {
          "internalType": "uint256",
          "name": "withdrawAmount",
          "type": "uint256"
        }
      ],
      "name": "InsufficientBalance",
      "type": "error"
    },
    {
      "anonymous": false,
      "inputs": [
        {
          "indexed": true,
          "internalType": "address",
          "name": "user",
          "type": "address"
        },
        {
          "indexed": false,
          "internalType": "uint256",
          "name": "amount",
          "type": "uint256"
        }
      ],
      "name": "CarbonCreditsBurned",
      "type": "event"
    },
    {
      "anonymous": false,
      "inputs": [
        {
          "indexed": true,
          "internalType": "address",
          "name": "user",
          "type": "address"
        },
        {
          "indexed": false,
          "internalType": "uint256",
          "name": "amount",
          "type": "uint256"
        }
      ],
      "name": "CarbonCreditsMinted",
      "type": "event"
    },
    {
      "anonymous": false,
      "inputs": [
        {
          "indexed": true,
          "internalType": "address",
          "name": "from",
          "type": "address"
        },
        {
          "indexed": true,
          "internalType": "address",
          "name": "to",
          "type": "address"
        },
        {
          "indexed": false,
          "internalType": "uint256",
          "name": "amount",
          "type": "uint256"
        }
      ],
      "name": "CarbonCreditsTransferred",
      "type": "event"
    },
    {
      "anonymous": false,
      "inputs": [
        {
          "indexed": false,
          "internalType": "uint256",
          "name": "amount",
          "type": "uint256"
        }
      ],
      "name": "Deposit",
      "type": "event"
    },
    {
      "anonymous": false,
      "inputs": [
        {
          "indexed": false,
          "internalType": "uint256",
          "name": "amount",
          "type": "uint256"
        }
      ],
      "name": "Withdraw",
      "type": "event"
    },
    {
      "inputs": [],
      "name": "balance",
      "outputs": [
        {
          "internalType": "uint256",
          "name": "",
          "type": "uint256"
        }
      ],
      "stateMutability": "view",
      "type": "function"
    },
    {
      "inputs": [
        {
          "internalType": "uint256",
          "name": "amount",
          "type": "uint256"
        }
      ],
      "name": "burnCarbonCredits",
      "outputs": [],
      "stateMutability": "nonpayable",
      "type": "function"
    },
    {
      "inputs": [
        {
          "internalType": "uint256",
          "name": "_amount",
          "type": "uint256"
        }
      ],
      "name": "deposit",
      "outputs": [],
      "stateMutability": "payable",
      "type": "function"
    },
    {
      "inputs": [],
      "name": "getBalance",
      "outputs": [
        {
          "internalType": "uint256",
          "name": "",
          "type": "uint256"
        }
      ],
      "stateMutability": "view",
      "type": "function"
    },
    {
      "inputs": [
        {
          "internalType": "address",
          "name": "account",
          "type": "address"
        }
      ],
      "name": "getCarbonCredits",
      "outputs": [
        {
          "internalType": "uint256",
          "name": "",
          "type": "uint256"
        }
      ],
      "stateMutability": "view",
      "type": "function"
    },
    {
      "inputs": [],
      "name": "getTotalDeposited",
      "outputs": [
        {
          "internalType": "uint256",
          "name": "",
          "type": "uint256"
        }
      ],
      "stateMutability": "view",
      "type": "function"
    },
    {
      "inputs": [],
      "name": "getTotalWithdrawn",
      "outputs": [
        {
          "internalType": "uint256",
          "name": "",
          "type": "uint256"
        }
      ],
      "stateMutability": "view",
      "type": "function"
    },
    {
      "inputs": [
        {
          "internalType": "address",
          "name": "to",
          "type": "address"
        },
        {
          "internalType": "uint256",
          "name": "amount",
          "type": "uint256"
        }
      ],
      "name": "mintCarbonCredits",
      "outputs": [],
      "stateMutability": "nonpayable",
      "type": "function"
    },
    {
      "inputs": [],
      "name": "owner",
      "outputs": [
        {
          "internalType": "address payable",
          "name": "",
          "type": "address"
        }
      ],
      "stateMutability": "view",
      "type": "function"
    },
    {
      "inputs": [],
      "name": "totalDeposited",
      "outputs": [
        {
          "internalType": "uint256",
          "name": "",
          "type": "uint256"
        }
      ],
      "stateMutability": "view",
      "type": "function"
    },
    {
      "inputs": [],
      "name": "totalWithdrawn",
      "outputs": [
        {
          "internalType": "uint256",
          "name": "",
          "type": "uint256"
        }
      ],
      "stateMutability": "view",
      "type": "function"
    },
    {
      "inputs": [
        {
          "internalType": "address",
          "name": "to",
          "type": "address"
        },
        {
          "internalType": "uint256",
          "name": "amount",
          "type": "uint256"
        }
      ],
      "name": "transferCarbonCredits",
      "outputs": [],
      "stateMutability": "nonpayable",
      "type": "function"
    },
    {
      "inputs": [
        {
          "internalType": "uint256",
          "name": "_withdrawAmount",
          "type": "uint256"
        }
      ],
      "name": "withdraw",
      "outputs": [],
      "stateMutability": "nonpayable",
      "type": "function"
    }
  ],
  "bytecode": "0x6080604052604051610a02380380610a0283398101604081905261002291610047565b600080546001600160a01b031916331781556001919091556002819055600355610060565b60006020828403121561005957600080fd5b5051919050565b6109938061006f6000396000f3fe6080604052600436106100c25760003560e01c8063b193c2011161007f578063b6b55f2511610059578063b6b55f25146101f1578063d2b1848914610204578063d7c7d51814610224578063ff50abdc1461024457600080fd5b8063b193c20114610190578063b68ef559146101c6578063b69ef8a8146101db57600080fd5b806312065fe0146100c75780632e1a7d4d146100eb5780634b3197131461010d57806389404a79146101235780638da5cb5b14610138578063afcdd81314610170575b600080fd5b3480156100d357600080fd5b506001545b6040519081526020015b60405180910390f35b3480156100f757600080fd5b5061010b610106366004610855565b61025a565b005b34801561011957600080fd5b506100d860035481565b34801561012f57600080fd5b506003546100d8565b34801561014457600080fd5b50600054610158906001600160a01b031681565b6040516001600160a01b0390911681526020016100e2565b34801561017c57600080fd5b5061010b61018b36600461088a565b6103f5565b34801561019c57600080fd5b506100d86101ab3660046108b4565b6001600160a01b031660009081526004602052604090205490565b3480156101d257600080fd5b506002546100d8565b3480156101e757600080fd5b506100d860015481565b61010b6101ff366004610855565b6104e9565b34801561021057600080fd5b5061010b61021f36600461088a565b61062a565b34801561023057600080fd5b5061010b61023f366004610855565b61071b565b34801561025057600080fd5b506100d860025481565b6000546001600160a01b0316331461028d5760405162461bcd60e51b8152600401610284906108d6565b60405180910390fd5b600154816102f15760405162461bcd60e51b815260206004820152602b60248201527f5769746864726177616c20616d6f756e74206d7573742062652067726561746560448201526a72207468616e207a65726f60a81b6064820152608401610284565b81600154101561033a5760405162461bcd60e51b8152602060048201526014602482015273496e73756666696369656e742062616c616e636560601b6044820152606401610284565b816001600082825461034c9190610931565b925050819055508160036000828254610365919061094a565b9091555061037590508282610931565b600154146103bd5760405162461bcd60e51b815260206004820152601560248201527410985b185b98d9481d5c19185d194819985a5b1959605a1b6044820152606401610284565b6040518281527f5b6b431d4476a211bb7d41c20d1aab9ae2321deee0d20be3d9fc9b1093fa6e3d906020015b60405180910390a15050565b336000908152600460205260409020548111156104545760405162461bcd60e51b815260206004820152601b60248201527f496e73756666696369656e7420636172626f6e206372656469747300000000006044820152606401610284565b3360009081526004602052604081208054839290610473908490610931565b90915550506001600160a01b038216600090815260046020526040812080548392906104a090849061094a565b90915550506040518181526001600160a01b0383169033907f4bddcd2adcae63181f5513ae0e14ae39dfd81f5d7f840faca9b8ce46caf7f77d9060200160405180910390a35050565b6001546000546001600160a01b031633146105165760405162461bcd60e51b8152600401610284906108d6565b600082116105775760405162461bcd60e51b815260206004820152602860248201527f4465706f73697420616d6f756e74206d7573742062652067726561746572207460448201526768616e207a65726f60c01b6064820152608401610284565b8160016000828254610589919061094a565b9250508190555081600260008282546105a2919061094a565b909155506105b29050828261094a565b600154146105fa5760405162461bcd60e51b815260206004820152601560248201527410985b185b98d9481d5c19185d194819985a5b1959605a1b6044820152606401610284565b6040518281527f4d6ce1e535dbade1c23defba91e23b8f791ce5edc0cc320257a2b364e4e38426906020016103e9565b6000546001600160a01b031633146106935760405162461bcd60e51b815260206004820152602660248201527f4f6e6c7920746865206f776e65722063616e206d696e7420636172626f6e206360448201526572656469747360d01b6064820152608401610284565b6001600160a01b038216600090815260046020526040812080548392906106bb90849061094a565b9250508190555080600160008282546106d4919061094a565b90915550506040518181526001600160a01b038316907f37a4fd118e63fe1042dacdaacc5d8e1bc2cc11e60fc7207d14ef5c5b740a92809060200160405180910390a25050565b3360009081526004602052604090205481111561077a5760405162461bcd60e51b815260206004820152601b60248201527f496e73756666696369656e7420636172626f6e206372656469747300000000006044820152606401610284565b3360009081526004602052604081208054839290610799908490610931565b90915550506001548111156108065760405162461bcd60e51b815260206004820152602d60248201527f436f6e74726163742062616c616e636520696e73756666696369656e7420746f60448201526c206275726e206372656469747360981b6064820152608401610284565b80600160008282546108189190610931565b909155505060405181815233907f1add2bea5792218090e6f47b30249496bf03b6333d11155e9a2284406c5468f69060200160405180910390a250565b60006020828403121561086757600080fd5b5035919050565b80356001600160a01b038116811461088557600080fd5b919050565b6000806040838503121561089d57600080fd5b6108a68361086e565b946020939093013593505050565b6000602082840312156108c657600080fd5b6108cf8261086e565b9392505050565b60208082526025908201527f596f7520617265206e6f7420746865206f776e6572206f66207468697320616360408201526418dbdd5b9d60da1b606082015260800190565b634e487b7160e01b600052601160045260246000fd5b818103818111156109445761094461091b565b92915050565b808201808211156109445761094461091b56fea26469706673582212203f6af63e1c2cfdb8068a2631fada2deaacef5e04618276df663ef8320563e86564736f6c63430008140033",
  "linkReferences": {},
  "deployedLinkReferences": {}
}